{
  "_format": "hh-sol-artifact-1",
  "contractName": "DINManager",
  "sourceName": "contracts/DINManager.sol",
  "abi": [
    {
      "inputs": [],
      "name": "MAX_SCORE",
      "outputs": [
        {
          "internalType": "uint256",
          "name": "",
          "type": "uint256"
        }
      ],
      "stateMutability": "view",
      "type": "function"
    },
    {
      "inputs": [
        {
          "internalType": "uint256",
          "name": "_projectId",
          "type": "uint256"
        },
        {
          "internalType": "address[]",
          "name": "_contributors",
          "type": "address[]"
        }
      ],
      "name": "addContributors",
      "outputs": [],
      "stateMutability": "nonpayable",
      "type": "function"
    },
    {
      "inputs": [
        {
          "internalType": "uint256",
          "name": "_projectId",
          "type": "uint256"
        },
        {
          "internalType": "address[]",
          "name": "_validators",
          "type": "address[]"
        }
      ],
      "name": "addValidators",
      "outputs": [],
      "stateMutability": "nonpayable",
      "type": "function"
    },
    {
      "inputs": [
        {
          "internalType": "uint256",
          "name": "_projectId",
          "type": "uint256"
        }
      ],
      "name": "collectContributorReward",
      "outputs": [],
      "stateMutability": "nonpayable",
      "type": "function"
    },
    {
      "inputs": [
        {
          "internalType": "uint256",
          "name": "_projectId",
          "type": "uint256"
        }
      ],
      "name": "collectValidatorReward",
      "outputs": [],
      "stateMutability": "nonpayable",
      "type": "function"
    },
    {
      "inputs": [
        {
          "internalType": "uint256",
          "name": "_projectId",
          "type": "uint256"
        },
        {
          "internalType": "address",
          "name": "_contributor",
          "type": "address"
        }
      ],
      "name": "collectedContributorReward",
      "outputs": [
        {
          "internalType": "bool",
          "name": "",
          "type": "bool"
        }
      ],
      "stateMutability": "view",
      "type": "function"
    },
    {
      "inputs": [
        {
          "internalType": "uint256",
          "name": "_projectId",
          "type": "uint256"
        },
        {
          "internalType": "address",
          "name": "_validator",
          "type": "address"
        }
      ],
      "name": "collectedValidatorReward",
      "outputs": [
        {
          "internalType": "bool",
          "name": "",
          "type": "bool"
        }
      ],
      "stateMutability": "view",
      "type": "function"
    },
    {
      "inputs": [
        {
          "internalType": "uint256",
          "name": "_projectId",
          "type": "uint256"
        },
        {
          "internalType": "address[]",
          "name": "_contributors",
          "type": "address[]"
        },
        {
          "internalType": "bytes32[]",
          "name": "_commitments",
          "type": "bytes32[]"
        }
      ],
      "name": "commitValidations",
      "outputs": [],
      "stateMutability": "nonpayable",
      "type": "function"
    },
    {
      "inputs": [
        {
          "internalType": "uint256",
          "name": "_projectId",
          "type": "uint256"
        },
        {
          "internalType": "address",
          "name": "_contributor",
          "type": "address"
        }
      ],
      "name": "contributorNumScores",
      "outputs": [
        {
          "internalType": "uint256",
          "name": "",
          "type": "uint256"
        }
      ],
      "stateMutability": "view",
      "type": "function"
    },
    {
      "inputs": [
        {
          "internalType": "uint256",
          "name": "_projectId",
          "type": "uint256"
        },
        {
          "internalType": "address",
          "name": "_contributor",
          "type": "address"
        }
      ],
      "name": "contributorTotalScore",
      "outputs": [
        {
          "internalType": "uint256",
          "name": "",
          "type": "uint256"
        }
      ],
      "stateMutability": "view",
      "type": "function"
    },
    {
      "inputs": [
        {
          "internalType": "string",
          "name": "_name",
          "type": "string"
        }
      ],
      "name": "createProject",
      "outputs": [],
      "stateMutability": "nonpayable",
      "type": "function"
    },
    {
      "inputs": [
        {
          "internalType": "uint256",
          "name": "_projectId",
          "type": "uint256"
        },
        {
          "internalType": "uint256",
          "name": "_index",
          "type": "uint256"
        }
      ],
      "name": "getContributor",
      "outputs": [
        {
          "internalType": "address",
          "name": "",
          "type": "address"
        }
      ],
      "stateMutability": "view",
      "type": "function"
    },
    {
      "inputs": [
        {
          "internalType": "address",
          "name": "_owner",
          "type": "address"
        }
      ],
      "name": "getProjectsByOwner",
      "outputs": [
        {
          "internalType": "uint256[]",
          "name": "",
          "type": "uint256[]"
        }
      ],
      "stateMutability": "view",
      "type": "function"
    },
    {
      "inputs": [
        {
          "internalType": "uint256",
          "name": "_projectId",
          "type": "uint256"
        },
        {
          "internalType": "uint256",
          "name": "_index",
          "type": "uint256"
        }
      ],
      "name": "getValidator",
      "outputs": [
        {
          "internalType": "address",
          "name": "",
          "type": "address"
        }
      ],
      "stateMutability": "view",
      "type": "function"
    },
    {
      "inputs": [
        {
          "internalType": "uint256",
          "name": "_projectId",
          "type": "uint256"
        },
        {
          "internalType": "address",
          "name": "_address",
          "type": "address"
        }
      ],
      "name": "isContributor",
      "outputs": [
        {
          "internalType": "bool",
          "name": "",
          "type": "bool"
        }
      ],
      "stateMutability": "view",
      "type": "function"
    },
    {
      "inputs": [
        {
          "internalType": "uint256",
          "name": "_projectId",
          "type": "uint256"
        },
        {
          "internalType": "address",
          "name": "_address",
          "type": "address"
        }
      ],
      "name": "isValidator",
      "outputs": [
        {
          "internalType": "bool",
          "name": "",
          "type": "bool"
        }
      ],
      "stateMutability": "view",
      "type": "function"
    },
    {
      "inputs": [
        {
          "internalType": "uint256",
          "name": "_projectId",
          "type": "uint256"
        },
        {
          "internalType": "address",
          "name": "_validator",
          "type": "address"
        }
      ],
      "name": "numSuccessfulValidations",
      "outputs": [
        {
          "internalType": "uint256",
          "name": "",
          "type": "uint256"
        }
      ],
      "stateMutability": "view",
      "type": "function"
    },
    {
      "inputs": [],
      "name": "projectCount",
      "outputs": [
        {
          "internalType": "uint256",
          "name": "",
          "type": "uint256"
        }
      ],
      "stateMutability": "view",
      "type": "function"
    },
    {
      "inputs": [
        {
          "internalType": "uint256",
          "name": "_projectId",
          "type": "uint256"
        }
      ],
      "name": "projectInfo",
      "outputs": [
        {
          "internalType": "address",
          "name": "owner",
          "type": "address"
        },
        {
          "internalType": "string",
          "name": "name",
          "type": "string"
        },
        {
          "internalType": "bool",
          "name": "active",
          "type": "bool"
        },
        {
          "internalType": "contract IERC20",
          "name": "rewardToken",
          "type": "address"
        },
        {
          "internalType": "uint256",
          "name": "contributorRewardAmount",
          "type": "uint256"
        },
        {
          "internalType": "uint256",
          "name": "validatorRewardAmount",
          "type": "uint256"
        },
        {
          "internalType": "uint256",
          "name": "validationCommitmentDeadline",
          "type": "uint256"
        },
        {
          "internalType": "uint256",
          "name": "validationRevealDeadline",
          "type": "uint256"
        },
        {
          "internalType": "uint256",
          "name": "numContributors",
          "type": "uint256"
        },
        {
          "internalType": "uint256",
          "name": "numValidators",
          "type": "uint256"
        },
        {
          "internalType": "uint256",
          "name": "totalScore",
          "type": "uint256"
        },
        {
          "internalType": "uint256",
          "name": "totalSuccessfulValidations",
          "type": "uint256"
        }
      ],
      "stateMutability": "view",
      "type": "function"
    },
    {
      "inputs": [
        {
          "internalType": "uint256",
          "name": "",
          "type": "uint256"
        }
      ],
      "name": "projects",
      "outputs": [
        {
          "internalType": "bool",
          "name": "active",
          "type": "bool"
        },
        {
          "internalType": "address",
          "name": "owner",
          "type": "address"
        },
        {
          "internalType": "string",
          "name": "name",
          "type": "string"
        },
        {
          "internalType": "contract IERC20",
          "name": "rewardToken",
          "type": "address"
        },
        {
          "internalType": "uint256",
          "name": "contributorRewardAmount",
          "type": "uint256"
        },
        {
          "internalType": "uint256",
          "name": "validatorRewardAmount",
          "type": "uint256"
        },
        {
          "internalType": "uint256",
          "name": "validationCommitmentDeadline",
          "type": "uint256"
        },
        {
          "internalType": "uint256",
          "name": "validationRevealDeadline",
          "type": "uint256"
        },
        {
          "internalType": "uint256",
          "name": "totalScore",
          "type": "uint256"
        },
        {
          "internalType": "uint256",
          "name": "totalSuccessfulValidations",
          "type": "uint256"
        }
      ],
      "stateMutability": "view",
      "type": "function"
    },
    {
      "inputs": [
        {
          "internalType": "uint256",
          "name": "_projectId",
          "type": "uint256"
        },
        {
          "internalType": "address[]",
          "name": "_contributors",
          "type": "address[]"
        },
        {
          "internalType": "bytes32[]",
          "name": "_secrets",
          "type": "bytes32[]"
        },
        {
          "internalType": "uint256[]",
          "name": "_scores",
          "type": "uint256[]"
        }
      ],
      "name": "revealValidations",
      "outputs": [],
      "stateMutability": "nonpayable",
      "type": "function"
    },
    {
      "inputs": [
        {
          "internalType": "uint256",
          "name": "_projectId",
          "type": "uint256"
        },
        {
          "internalType": "address",
          "name": "_validator",
          "type": "address"
        },
        {
          "internalType": "address",
          "name": "_contributor",
          "type": "address"
        }
      ],
      "name": "score",
      "outputs": [
        {
          "internalType": "uint256",
          "name": "",
          "type": "uint256"
        }
      ],
      "stateMutability": "view",
      "type": "function"
    },
    {
      "inputs": [
        {
          "internalType": "uint256",
          "name": "_projectId",
          "type": "uint256"
        },
        {
          "internalType": "contract IERC20",
          "name": "_rewardToken",
          "type": "address"
        },
        {
          "internalType": "uint256",
          "name": "_contributorRewardAmount",
          "type": "uint256"
        },
        {
          "internalType": "uint256",
          "name": "_validationRewardAmount",
          "type": "uint256"
        },
        {
          "internalType": "uint256",
          "name": "_validationCommitmentDeadline",
          "type": "uint256"
        },
        {
          "internalType": "uint256",
          "name": "_validationRevealDeadline",
          "type": "uint256"
        }
      ],
      "name": "startProject",
      "outputs": [],
      "stateMutability": "nonpayable",
      "type": "function"
    },
    {
      "inputs": [
        {
          "internalType": "uint256",
          "name": "_projectId",
          "type": "uint256"
        },
        {
          "internalType": "address",
          "name": "_validator",
          "type": "address"
        },
        {
          "internalType": "address",
          "name": "_contributor",
          "type": "address"
        }
      ],
      "name": "validationCommitment",
      "outputs": [
        {
          "internalType": "bytes32",
          "name": "",
          "type": "bytes32"
        }
      ],
      "stateMutability": "view",
      "type": "function"
    },
    {
      "inputs": [
        {
          "internalType": "uint256",
          "name": "_projectId",
          "type": "uint256"
        },
        {
          "internalType": "address",
          "name": "_validator",
          "type": "address"
        },
        {
          "internalType": "address",
          "name": "_contributor",
          "type": "address"
        }
      ],
      "name": "validationRevealed",
      "outputs": [
        {
          "internalType": "bool",
          "name": "",
          "type": "bool"
        }
      ],
      "stateMutability": "view",
      "type": "function"
    }
  ],
  "bytecode": "0x6080604052348015600f57600080fd5b50614cd58061001f6000396000f3fe608060405234801561001057600080fd5b50600436106101735760003560e01c80638cdc341e116100de5780639eda7d2311610097578063ce14f79f11610071578063ce14f79f146104cc578063e18d10ea146104fc578063ee8220b41461052c578063f5c6d1031461054857610173565b80639eda7d2314610431578063bf0529b914610461578063c9acbcf11461049157610173565b80638cdc341e1461034d5780638d0f30ec146103695780638eabe5e4146103995780639168abde146103b55780639c539ef4146103d15780639d9cc2fe1461040157610173565b806336fbad261161013057806336fbad261461026757806342f6a9611461028557806344a982e7146102a157806359b41437146102d157806363b4118f146102ed5780636841b4311461031d57610173565b8063107046bd1461017857806315ee4df1146101b15780631dd8fe41146101cd57806323f2a73f146101fd57806327ff62231461022d5780632e85d4301461024b575b600080fd5b610192600480360381019061018d9190612e07565b610578565b6040516101a89a99989796959493929190612f8e565b60405180910390f35b6101cb60048036038101906101c69190613166565b6106a1565b005b6101e760048036038101906101e291906131db565b610737565b6040516101f4919061321b565b60405180910390f35b610217600480360381019061021291906131db565b6107a1565b604051610224919061321b565b60405180910390f35b61023561080b565b6040516102429190613236565b60405180910390f35b610265600480360381019061026091906132b1565b610812565b005b61026f610af1565b60405161027c9190613236565b60405180910390f35b61029f600480360381019061029a91906132b1565b610af7565b005b6102bb60048036038101906102b69190613311565b610dd6565b6040516102c89190613351565b60405180910390f35b6102eb60048036038101906102e69190612e07565b610e32565b005b61030760048036038101906103029190613311565b6111e6565b6040516103149190613351565b60405180910390f35b6103376004803603810190610332919061336c565b611242565b60405161034491906133d8565b60405180910390f35b61036760048036038101906103629190612e07565b6112dd565b005b610383600480360381019061037e919061336c565b6116fe565b6040516103909190613236565b60405180910390f35b6103b360048036038101906103ae9190613449565b611799565b005b6103cf60048036038101906103ca919061351c565b611a04565b005b6103eb60048036038101906103e6919061336c565b611ed8565b6040516103f8919061321b565b60405180910390f35b61041b600480360381019061041691906135a9565b611f80565b6040516104289190613694565b60405180910390f35b61044b600480360381019061044691906131db565b612122565b604051610458919061321b565b60405180910390f35b61047b600480360381019061047691906131db565b61218c565b6040516104889190613236565b60405180910390f35b6104ab60048036038101906104a69190612e07565b6121e9565b6040516104c39c9b9a999897969594939291906136b6565b60405180910390f35b6104e660048036038101906104e191906131db565b612354565b6040516104f39190613236565b60405180910390f35b610516600480360381019061051191906131db565b6123b1565b604051610523919061321b565b60405180910390f35b610546600480360381019061054191906137cd565b61241b565b005b610562600480360381019061055d91906131db565b612d2d565b60405161056f9190613236565b60405180910390f35b60006020528060005260406000206000915090508060000160009054906101000a900460ff16908060000160019054906101000a900473ffffffffffffffffffffffffffffffffffffffff16908060010180546105d4906138c5565b80601f0160208091040260200160405190810160405280929190818152602001828054610600906138c5565b801561064d5780601f106106225761010080835404028352916020019161064d565b820191906000526020600020905b81548152906001019060200180831161063057829003601f168201915b5050505050908060060160009054906101000a900473ffffffffffffffffffffffffffffffffffffffff169080600701549080600801549080600901549080600a015490806010015490806012015490508a565b33600080600154815260200190815260200160002060000160016101000a81548173ffffffffffffffffffffffffffffffffffffffff021916908373ffffffffffffffffffffffffffffffffffffffff160217905550806000806001548152602001908152602001600020600101908161071b9190613a98565b506001600081548092919061072f90613b99565b919050555050565b600080600084815260200190815260200160002060130160008373ffffffffffffffffffffffffffffffffffffffff1673ffffffffffffffffffffffffffffffffffffffff16815260200190815260200160002060009054906101000a900460ff16905092915050565b600080600084815260200190815260200160002060050160008373ffffffffffffffffffffffffffffffffffffffff1673ffffffffffffffffffffffffffffffffffffffff16815260200190815260200160002060009054906101000a900460ff16905092915050565b620186a081565b600080600085815260200190815260200160002090508060000160019054906101000a900473ffffffffffffffffffffffffffffffffffffffff1673ffffffffffffffffffffffffffffffffffffffff163373ffffffffffffffffffffffffffffffffffffffff16146108ba576040517f08c379a00000000000000000000000000000000000000000000000000000000081526004016108b190613c53565b60405180910390fd5b8060000160009054906101000a900460ff161561090c576040517f08c379a000000000000000000000000000000000000000000000000000000000815260040161090390613cbf565b60405180910390fd5b60005b83839050811015610aea5781600501600085858481811061093357610932613cdf565b5b905060200201602081019061094891906135a9565b73ffffffffffffffffffffffffffffffffffffffff1673ffffffffffffffffffffffffffffffffffffffff16815260200190815260200160002060009054906101000a900460ff16156109d0576040517f08c379a00000000000000000000000000000000000000000000000000000000081526004016109c790613d5a565b60405180910390fd5b60018260050160008686858181106109eb576109ea613cdf565b5b9050602002016020810190610a0091906135a9565b73ffffffffffffffffffffffffffffffffffffffff1673ffffffffffffffffffffffffffffffffffffffff16815260200190815260200160002060006101000a81548160ff02191690831515021790555081600301848483818110610a6857610a67613cdf565b5b9050602002016020810190610a7d91906135a9565b9080600181540180825580915050600190039060005260206000200160009091909190916101000a81548173ffffffffffffffffffffffffffffffffffffffff021916908373ffffffffffffffffffffffffffffffffffffffff160217905550808060010191505061090f565b5050505050565b60015481565b600080600085815260200190815260200160002090508060000160019054906101000a900473ffffffffffffffffffffffffffffffffffffffff1673ffffffffffffffffffffffffffffffffffffffff163373ffffffffffffffffffffffffffffffffffffffff1614610b9f576040517f08c379a0000000000000000000000000000000000000000000000000000000008152600401610b9690613dec565b60405180910390fd5b8060000160009054906101000a900460ff1615610bf1576040517f08c379a0000000000000000000000000000000000000000000000000000000008152600401610be890613cbf565b60405180910390fd5b60005b83839050811015610dcf57816004016000858584818110610c1857610c17613cdf565b5b9050602002016020810190610c2d91906135a9565b73ffffffffffffffffffffffffffffffffffffffff1673ffffffffffffffffffffffffffffffffffffffff16815260200190815260200160002060009054906101000a900460ff1615610cb5576040517f08c379a0000000000000000000000000000000000000000000000000000000008152600401610cac90613e58565b60405180910390fd5b6001826004016000868685818110610cd057610ccf613cdf565b5b9050602002016020810190610ce591906135a9565b73ffffffffffffffffffffffffffffffffffffffff1673ffffffffffffffffffffffffffffffffffffffff16815260200190815260200160002060006101000a81548160ff02191690831515021790555081600201848483818110610d4d57610d4c613cdf565b5b9050602002016020810190610d6291906135a9565b9080600181540180825580915050600190039060005260206000200160009091909190916101000a81548173ffffffffffffffffffffffffffffffffffffffff021916908373ffffffffffffffffffffffffffffffffffffffff1602179055508080600101915050610bf4565b5050505050565b60008060008481526020019081526020016000206002018281548110610dff57610dfe613cdf565b5b9060005260206000200160009054906101000a900473ffffffffffffffffffffffffffffffffffffffff16905092915050565b600080600083815260200190815260200160002090508060000160009054906101000a900460ff16610e99576040517f08c379a0000000000000000000000000000000000000000000000000000000008152600401610e9090613ec4565b60405180910390fd5b80600a01544211610edf576040517f08c379a0000000000000000000000000000000000000000000000000000000008152600401610ed690613f56565b60405180910390fd5b8060050160003373ffffffffffffffffffffffffffffffffffffffff1673ffffffffffffffffffffffffffffffffffffffff16815260200190815260200160002060009054906101000a900460ff16610f6d576040517f08c379a0000000000000000000000000000000000000000000000000000000008152600401610f6490613fe8565b60405180910390fd5b8060130160003373ffffffffffffffffffffffffffffffffffffffff1673ffffffffffffffffffffffffffffffffffffffff16815260200190815260200160002060009054906101000a900460ff1615610ffc576040517f08c379a0000000000000000000000000000000000000000000000000000000008152600401610ff390614054565b60405180910390fd5b60008160110160003373ffffffffffffffffffffffffffffffffffffffff1673ffffffffffffffffffffffffffffffffffffffff1681526020019081526020016000205411611080576040517f08c379a000000000000000000000000000000000000000000000000000000000815260040161107790613fe8565b60405180910390fd5b600081601201548260110160003373ffffffffffffffffffffffffffffffffffffffff1673ffffffffffffffffffffffffffffffffffffffff1681526020019081526020016000205483600801546110d89190614074565b6110e291906140e5565b90508160060160009054906101000a900473ffffffffffffffffffffffffffffffffffffffff1673ffffffffffffffffffffffffffffffffffffffff1663a9059cbb33836040518363ffffffff1660e01b8152600401611143929190614116565b6020604051808303816000875af1158015611162573d6000803e3d6000fd5b505050506040513d601f19601f82011682018060405250810190611186919061416b565b5060018260130160003373ffffffffffffffffffffffffffffffffffffffff1673ffffffffffffffffffffffffffffffffffffffff16815260200190815260200160002060006101000a81548160ff021916908315150217905550505050565b6000806000848152602001908152602001600020600301828154811061120f5761120e613cdf565b5b9060005260206000200160009054906101000a900473ffffffffffffffffffffffffffffffffffffffff16905092915050565b6000806000858152602001908152602001600020600b0160008473ffffffffffffffffffffffffffffffffffffffff1673ffffffffffffffffffffffffffffffffffffffff16815260200190815260200160002060008373ffffffffffffffffffffffffffffffffffffffff1673ffffffffffffffffffffffffffffffffffffffff1681526020019081526020016000205490509392505050565b600080600083815260200190815260200160002090508060000160009054906101000a900460ff16611344576040517f08c379a000000000000000000000000000000000000000000000000000000000815260040161133b90613ec4565b60405180910390fd5b80600a0154421161138a576040517f08c379a000000000000000000000000000000000000000000000000000000000815260040161138190613f56565b60405180910390fd5b8060040160003373ffffffffffffffffffffffffffffffffffffffff1673ffffffffffffffffffffffffffffffffffffffff16815260200190815260200160002060009054906101000a900460ff16611418576040517f08c379a000000000000000000000000000000000000000000000000000000000815260040161140f90613fe8565b60405180910390fd5b600081600e0160003373ffffffffffffffffffffffffffffffffffffffff1673ffffffffffffffffffffffffffffffffffffffff168152602001908152602001600020541161149c576040517f08c379a0000000000000000000000000000000000000000000000000000000008152600401611493906141e4565b60405180910390fd5b8060140160003373ffffffffffffffffffffffffffffffffffffffff1673ffffffffffffffffffffffffffffffffffffffff16815260200190815260200160002060009054906101000a900460ff161561152b576040517f08c379a000000000000000000000000000000000000000000000000000000000815260040161152290614054565b60405180910390fd5b60008160100154826003018054905083600f0160003373ffffffffffffffffffffffffffffffffffffffff1673ffffffffffffffffffffffffffffffffffffffff168152602001908152602001600020546115869190614074565b6115909190614074565b826012015483600e0160003373ffffffffffffffffffffffffffffffffffffffff1673ffffffffffffffffffffffffffffffffffffffff168152602001908152602001600020546115e19190614074565b83600701546115f09190614074565b6115fa91906140e5565b905060018260140160003373ffffffffffffffffffffffffffffffffffffffff1673ffffffffffffffffffffffffffffffffffffffff16815260200190815260200160002060006101000a81548160ff0219169083151502179055508160060160009054906101000a900473ffffffffffffffffffffffffffffffffffffffff1673ffffffffffffffffffffffffffffffffffffffff1663a9059cbb33836040518363ffffffff1660e01b81526004016116b5929190614116565b6020604051808303816000875af11580156116d4573d6000803e3d6000fd5b505050506040513d601f19601f820116820180604052508101906116f8919061416b565b50505050565b6000806000858152602001908152602001600020600c0160008473ffffffffffffffffffffffffffffffffffffffff1673ffffffffffffffffffffffffffffffffffffffff16815260200190815260200160002060008373ffffffffffffffffffffffffffffffffffffffff1673ffffffffffffffffffffffffffffffffffffffff1681526020019081526020016000205490509392505050565b600080600087815260200190815260200160002090508060000160009054906101000a900460ff16611800576040517f08c379a00000000000000000000000000000000000000000000000000000000081526004016117f790613ec4565b60405180910390fd5b8060090154421115611847576040517f08c379a000000000000000000000000000000000000000000000000000000000815260040161183e90614276565b60405180910390fd5b8060050160003373ffffffffffffffffffffffffffffffffffffffff1673ffffffffffffffffffffffffffffffffffffffff16815260200190815260200160002060009054906101000a900460ff166118d5576040517f08c379a00000000000000000000000000000000000000000000000000000000081526004016118cc90614308565b60405180910390fd5b82829050858590501461191d576040517f08c379a00000000000000000000000000000000000000000000000000000000081526004016119149061439a565b60405180910390fd5b60005b858590508110156119fb5783838281811061193e5761193d613cdf565b5b9050602002013582600b0160003373ffffffffffffffffffffffffffffffffffffffff1673ffffffffffffffffffffffffffffffffffffffff168152602001908152602001600020600088888581811061199b5761199a613cdf565b5b90506020020160208101906119b091906135a9565b73ffffffffffffffffffffffffffffffffffffffff1673ffffffffffffffffffffffffffffffffffffffff168152602001908152602001600020819055508080600101915050611920565b50505050505050565b60008087815260200190815260200160002060000160009054906101000a900460ff1615611a67576040517f08c379a0000000000000000000000000000000000000000000000000000000008152600401611a5e90614406565b60405180910390fd5b60008087815260200190815260200160002060000160019054906101000a900473ffffffffffffffffffffffffffffffffffffffff1673ffffffffffffffffffffffffffffffffffffffff163373ffffffffffffffffffffffffffffffffffffffff1614611b0a576040517f08c379a0000000000000000000000000000000000000000000000000000000008152600401611b0190614498565b60405180910390fd5b60008060008881526020019081526020016000206003018054905011611b65576040517f08c379a0000000000000000000000000000000000000000000000000000000008152600401611b5c9061452a565b60405180910390fd5b60008060008881526020019081526020016000206002018054905011611bc0576040517f08c379a0000000000000000000000000000000000000000000000000000000008152600401611bb7906145bc565b60405180910390fd5b8284611bcc91906145dc565b8573ffffffffffffffffffffffffffffffffffffffff166370a08231336040518263ffffffff1660e01b8152600401611c059190613351565b602060405180830381865afa158015611c22573d6000803e3d6000fd5b505050506040513d601f19601f82011682018060405250810190611c469190614625565b1015611c87576040517f08c379a0000000000000000000000000000000000000000000000000000000008152600401611c7e9061469e565b60405180910390fd5b428211611cc9576040517f08c379a0000000000000000000000000000000000000000000000000000000008152600401611cc090614730565b60405180910390fd5b818111611d0b576040517f08c379a0000000000000000000000000000000000000000000000000000000008152600401611d02906147c2565b60405180910390fd5b600084118015611d1b5750600083115b611d5a576040517f08c379a0000000000000000000000000000000000000000000000000000000008152600401611d519061482e565b60405180910390fd5b600160008088815260200190815260200160002060000160006101000a81548160ff0219169083151502179055508460008088815260200190815260200160002060060160006101000a81548173ffffffffffffffffffffffffffffffffffffffff021916908373ffffffffffffffffffffffffffffffffffffffff16021790555083600080888152602001908152602001600020600701819055508260008088815260200190815260200160002060080181905550816000808881526020019081526020016000206009018190555080600080888152602001908152602001600020600a01819055508473ffffffffffffffffffffffffffffffffffffffff166323b872dd33308688611e6e91906145dc565b6040518463ffffffff1660e01b8152600401611e8c9392919061484e565b6020604051808303816000875af1158015611eab573d6000803e3d6000fd5b505050506040513d601f19601f82011682018060405250810190611ecf919061416b565b50505050505050565b6000806000858152602001908152602001600020600d0160008473ffffffffffffffffffffffffffffffffffffffff1673ffffffffffffffffffffffffffffffffffffffff16815260200190815260200160002060008373ffffffffffffffffffffffffffffffffffffffff1673ffffffffffffffffffffffffffffffffffffffff16815260200190815260200160002060009054906101000a900460ff1690509392505050565b60606000805b600154811015612014578373ffffffffffffffffffffffffffffffffffffffff1660008083815260200190815260200160002060000160019054906101000a900473ffffffffffffffffffffffffffffffffffffffff1673ffffffffffffffffffffffffffffffffffffffff160361200757818061200390613b99565b9250505b8080600101915050611f86565b5060008167ffffffffffffffff8111156120315761203061303b565b5b60405190808252806020026020018201604052801561205f5781602001602082028036833780820191505090505b5090506000915060005b600154811015612117578473ffffffffffffffffffffffffffffffffffffffff1660008083815260200190815260200160002060000160019054906101000a900473ffffffffffffffffffffffffffffffffffffffff1673ffffffffffffffffffffffffffffffffffffffff160361210a57808284815181106120ef576120ee613cdf565b5b602002602001018181525050828061210690613b99565b9350505b8080600101915050612069565b508092505050919050565b600080600084815260200190815260200160002060040160008373ffffffffffffffffffffffffffffffffffffffff1673ffffffffffffffffffffffffffffffffffffffff16815260200190815260200160002060009054906101000a900460ff16905092915050565b6000806000848152602001908152602001600020600e0160008373ffffffffffffffffffffffffffffffffffffffff1673ffffffffffffffffffffffffffffffffffffffff16815260200190815260200160002054905092915050565b6000606060008060008060008060008060008060008060008f815260200190815260200160002090508060000160019054906101000a900473ffffffffffffffffffffffffffffffffffffffff16816001018260000160009054906101000a900460ff168360060160009054906101000a900473ffffffffffffffffffffffffffffffffffffffff1684600701548560080154866009015487600a0154886002018054905089600301805490508a601001548b601201548a80546122ac906138c5565b80601f01602080910402602001604051908101604052809291908181526020018280546122d8906138c5565b80156123255780601f106122fa57610100808354040283529160200191612325565b820191906000526020600020905b81548152906001019060200180831161230857829003601f168201915b50505050509a509c509c509c509c509c509c509c509c509c509c509c509c505091939597999b5091939597999b565b600080600084815260200190815260200160002060110160008373ffffffffffffffffffffffffffffffffffffffff1673ffffffffffffffffffffffffffffffffffffffff16815260200190815260200160002054905092915050565b600080600084815260200190815260200160002060140160008373ffffffffffffffffffffffffffffffffffffffff1673ffffffffffffffffffffffffffffffffffffffff16815260200190815260200160002060009054906101000a900460ff16905092915050565b600080600089815260200190815260200160002090508060000160009054906101000a900460ff16612482576040517f08c379a000000000000000000000000000000000000000000000000000000000815260040161247990613ec4565b60405180910390fd5b80600a01544211156124c9576040517f08c379a00000000000000000000000000000000000000000000000000000000081526004016124c0906148f7565b60405180910390fd5b8060050160003373ffffffffffffffffffffffffffffffffffffffff1673ffffffffffffffffffffffffffffffffffffffff16815260200190815260200160002060009054906101000a900460ff16612557576040517f08c379a000000000000000000000000000000000000000000000000000000000815260040161254e90614989565b60405180910390fd5b848490508787905014801561257157508282905085859050145b6125b0576040517f08c379a00000000000000000000000000000000000000000000000000000000081526004016125a7906149f5565b60405180910390fd5b60005b87879050811015612ca9576000801b82600b0160003373ffffffffffffffffffffffffffffffffffffffff1673ffffffffffffffffffffffffffffffffffffffff16815260200190815260200160002060008a8a8581811061261857612617613cdf565b5b905060200201602081019061262d91906135a9565b73ffffffffffffffffffffffffffffffffffffffff1673ffffffffffffffffffffffffffffffffffffffff16815260200190815260200160002054036126a8576040517f08c379a000000000000000000000000000000000000000000000000000000000815260040161269f90614a61565b60405180910390fd5b81600d0160003373ffffffffffffffffffffffffffffffffffffffff1673ffffffffffffffffffffffffffffffffffffffff16815260200190815260200160002060008989848181106126fe576126fd613cdf565b5b905060200201602081019061271391906135a9565b73ffffffffffffffffffffffffffffffffffffffff1673ffffffffffffffffffffffffffffffffffffffff16815260200190815260200160002060009054906101000a900460ff161561279b576040517f08c379a000000000000000000000000000000000000000000000000000000000815260040161279290614acd565b60405180910390fd5b620186a08484838181106127b2576127b1613cdf565b5b9050602002013511156127fa576040517f08c379a00000000000000000000000000000000000000000000000000000000081526004016127f190614b39565b60405180910390fd5b81600401600089898481811061281357612812613cdf565b5b905060200201602081019061282891906135a9565b73ffffffffffffffffffffffffffffffffffffffff1673ffffffffffffffffffffffffffffffffffffffff16815260200190815260200160002060009054906101000a900460ff166128af576040517f08c379a00000000000000000000000000000000000000000000000000000000081526004016128a690614ba5565b60405180910390fd5b6128eb8686838181106128c5576128c4613cdf565b5b905060200201358585848181106128df576128de613cdf565b5b90506020020135612d8a565b82600b0160003373ffffffffffffffffffffffffffffffffffffffff1673ffffffffffffffffffffffffffffffffffffffff16815260200190815260200160002060008a8a8581811061294157612940613cdf565b5b905060200201602081019061295691906135a9565b73ffffffffffffffffffffffffffffffffffffffff1673ffffffffffffffffffffffffffffffffffffffff16815260200190815260200160002054146129d1576040517f08c379a00000000000000000000000000000000000000000000000000000000081526004016129c890614c11565b60405180910390fd5b8383828181106129e4576129e3613cdf565b5b9050602002013582600c0160003373ffffffffffffffffffffffffffffffffffffffff1673ffffffffffffffffffffffffffffffffffffffff16815260200190815260200160002060008a8a85818110612a4157612a40613cdf565b5b9050602002016020810190612a5691906135a9565b73ffffffffffffffffffffffffffffffffffffffff1673ffffffffffffffffffffffffffffffffffffffff16815260200190815260200160002081905550600182600d0160003373ffffffffffffffffffffffffffffffffffffffff1673ffffffffffffffffffffffffffffffffffffffff16815260200190815260200160002060008a8a85818110612aec57612aeb613cdf565b5b9050602002016020810190612b0191906135a9565b73ffffffffffffffffffffffffffffffffffffffff1673ffffffffffffffffffffffffffffffffffffffff16815260200190815260200160002060006101000a81548160ff021916908315150217905550838382818110612b6557612b64613cdf565b5b9050602002013582600e0160008a8a85818110612b8557612b84613cdf565b5b9050602002016020810190612b9a91906135a9565b73ffffffffffffffffffffffffffffffffffffffff1673ffffffffffffffffffffffffffffffffffffffff1681526020019081526020016000206000828254612be391906145dc565b9250508190555081600f016000898984818110612c0357612c02613cdf565b5b9050602002016020810190612c1891906135a9565b73ffffffffffffffffffffffffffffffffffffffff1673ffffffffffffffffffffffffffffffffffffffff1681526020019081526020016000206000815480929190612c6390613b99565b9190505550838382818110612c7b57612c7a613cdf565b5b90506020020135826010016000828254612c9591906145dc565b9250508190555080806001019150506125b3565b50868690508160110160003373ffffffffffffffffffffffffffffffffffffffff1673ffffffffffffffffffffffffffffffffffffffff1681526020019081526020016000206000828254612cfe91906145dc565b9250508190555086869050816012016000828254612d1c91906145dc565b925050819055505050505050505050565b6000806000848152602001908152602001600020600f0160008373ffffffffffffffffffffffffffffffffffffffff1673ffffffffffffffffffffffffffffffffffffffff16815260200190815260200160002054905092915050565b60008282604051602001612d9f929190614c73565b60405160208183030381529060405280519060200120905092915050565b6000604051905090565b600080fd5b600080fd5b6000819050919050565b612de481612dd1565b8114612def57600080fd5b50565b600081359050612e0181612ddb565b92915050565b600060208284031215612e1d57612e1c612dc7565b5b6000612e2b84828501612df2565b91505092915050565b60008115159050919050565b612e4981612e34565b82525050565b600073ffffffffffffffffffffffffffffffffffffffff82169050919050565b6000612e7a82612e4f565b9050919050565b612e8a81612e6f565b82525050565b600081519050919050565b600082825260208201905092915050565b60005b83811015612eca578082015181840152602081019050612eaf565b60008484015250505050565b6000601f19601f8301169050919050565b6000612ef282612e90565b612efc8185612e9b565b9350612f0c818560208601612eac565b612f1581612ed6565b840191505092915050565b6000819050919050565b6000612f45612f40612f3b84612e4f565b612f20565b612e4f565b9050919050565b6000612f5782612f2a565b9050919050565b6000612f6982612f4c565b9050919050565b612f7981612f5e565b82525050565b612f8881612dd1565b82525050565b600061014082019050612fa4600083018d612e40565b612fb1602083018c612e81565b8181036040830152612fc3818b612ee7565b9050612fd2606083018a612f70565b612fdf6080830189612f7f565b612fec60a0830188612f7f565b612ff960c0830187612f7f565b61300660e0830186612f7f565b613014610100830185612f7f565b613022610120830184612f7f565b9b9a5050505050505050505050565b600080fd5b600080fd5b7f4e487b7100000000000000000000000000000000000000000000000000000000600052604160045260246000fd5b61307382612ed6565b810181811067ffffffffffffffff821117156130925761309161303b565b5b80604052505050565b60006130a5612dbd565b90506130b1828261306a565b919050565b600067ffffffffffffffff8211156130d1576130d061303b565b5b6130da82612ed6565b9050602081019050919050565b82818337600083830152505050565b6000613109613104846130b6565b61309b565b90508281526020810184848401111561312557613124613036565b5b6131308482856130e7565b509392505050565b600082601f83011261314d5761314c613031565b5b813561315d8482602086016130f6565b91505092915050565b60006020828403121561317c5761317b612dc7565b5b600082013567ffffffffffffffff81111561319a57613199612dcc565b5b6131a684828501613138565b91505092915050565b6131b881612e6f565b81146131c357600080fd5b50565b6000813590506131d5816131af565b92915050565b600080604083850312156131f2576131f1612dc7565b5b600061320085828601612df2565b9250506020613211858286016131c6565b9150509250929050565b60006020820190506132306000830184612e40565b92915050565b600060208201905061324b6000830184612f7f565b92915050565b600080fd5b600080fd5b60008083601f84011261327157613270613031565b5b8235905067ffffffffffffffff81111561328e5761328d613251565b5b6020830191508360208202830111156132aa576132a9613256565b5b9250929050565b6000806000604084860312156132ca576132c9612dc7565b5b60006132d886828701612df2565b935050602084013567ffffffffffffffff8111156132f9576132f8612dcc565b5b6133058682870161325b565b92509250509250925092565b6000806040838503121561332857613327612dc7565b5b600061333685828601612df2565b925050602061334785828601612df2565b9150509250929050565b60006020820190506133666000830184612e81565b92915050565b60008060006060848603121561338557613384612dc7565b5b600061339386828701612df2565b93505060206133a4868287016131c6565b92505060406133b5868287016131c6565b9150509250925092565b6000819050919050565b6133d2816133bf565b82525050565b60006020820190506133ed60008301846133c9565b92915050565b60008083601f84011261340957613408613031565b5b8235905067ffffffffffffffff81111561342657613425613251565b5b60208301915083602082028301111561344257613441613256565b5b9250929050565b60008060008060006060868803121561346557613464612dc7565b5b600061347388828901612df2565b955050602086013567ffffffffffffffff81111561349457613493612dcc565b5b6134a08882890161325b565b9450945050604086013567ffffffffffffffff8111156134c3576134c2612dcc565b5b6134cf888289016133f3565b92509250509295509295909350565b60006134e982612e6f565b9050919050565b6134f9816134de565b811461350457600080fd5b50565b600081359050613516816134f0565b92915050565b60008060008060008060c0878903121561353957613538612dc7565b5b600061354789828a01612df2565b965050602061355889828a01613507565b955050604061356989828a01612df2565b945050606061357a89828a01612df2565b935050608061358b89828a01612df2565b92505060a061359c89828a01612df2565b9150509295509295509295565b6000602082840312156135bf576135be612dc7565b5b60006135cd848285016131c6565b91505092915050565b600081519050919050565b600082825260208201905092915050565b6000819050602082019050919050565b61360b81612dd1565b82525050565b600061361d8383613602565b60208301905092915050565b6000602082019050919050565b6000613641826135d6565b61364b81856135e1565b9350613656836135f2565b8060005b8381101561368757815161366e8882613611565b975061367983613629565b92505060018101905061365a565b5085935050505092915050565b600060208201905081810360008301526136ae8184613636565b905092915050565b6000610180820190506136cc600083018f612e81565b81810360208301526136de818e612ee7565b90506136ed604083018d612e40565b6136fa606083018c612f70565b613707608083018b612f7f565b61371460a083018a612f7f565b61372160c0830189612f7f565b61372e60e0830188612f7f565b61373c610100830187612f7f565b61374a610120830186612f7f565b613758610140830185612f7f565b613766610160830184612f7f565b9d9c50505050505050505050505050565b60008083601f84011261378d5761378c613031565b5b8235905067ffffffffffffffff8111156137aa576137a9613251565b5b6020830191508360208202830111156137c6576137c5613256565b5b9250929050565b60008060008060008060006080888a0312156137ec576137eb612dc7565b5b60006137fa8a828b01612df2565b975050602088013567ffffffffffffffff81111561381b5761381a612dcc565b5b6138278a828b0161325b565b9650965050604088013567ffffffffffffffff81111561384a57613849612dcc565b5b6138568a828b016133f3565b9450945050606088013567ffffffffffffffff81111561387957613878612dcc565b5b6138858a828b01613777565b925092505092959891949750929550565b7f4e487b7100000000000000000000000000000000000000000000000000000000600052602260045260246000fd5b600060028204905060018216806138dd57607f821691505b6020821081036138f0576138ef613896565b5b50919050565b60008190508160005260206000209050919050565b60006020601f8301049050919050565b600082821b905092915050565b6000600883026139587fffffffffffffffffffffffffffffffffffffffffffffffffffffffffffffffff8261391b565b613962868361391b565b95508019841693508086168417925050509392505050565b600061399561399061398b84612dd1565b612f20565b612dd1565b9050919050565b6000819050919050565b6139af8361397a565b6139c36139bb8261399c565b848454613928565b825550505050565b600090565b6139d86139cb565b6139e38184846139a6565b505050565b5b81811015613a07576139fc6000826139d0565b6001810190506139e9565b5050565b601f821115613a4c57613a1d816138f6565b613a268461390b565b81016020851015613a35578190505b613a49613a418561390b565b8301826139e8565b50505b505050565b600082821c905092915050565b6000613a6f60001984600802613a51565b1980831691505092915050565b6000613a888383613a5e565b9150826002028217905092915050565b613aa182612e90565b67ffffffffffffffff811115613aba57613ab961303b565b5b613ac482546138c5565b613acf828285613a0b565b600060209050601f831160018114613b025760008415613af0578287015190505b613afa8582613a7c565b865550613b62565b601f198416613b10866138f6565b60005b82811015613b3857848901518255600182019150602085019450602081019050613b13565b86831015613b555784890151613b51601f891682613a5e565b8355505b6001600288020188555050505b505050505050565b7f4e487b7100000000000000000000000000000000000000000000000000000000600052601160045260246000fd5b6000613ba482612dd1565b91507fffffffffffffffffffffffffffffffffffffffffffffffffffffffffffffffff8203613bd657613bd5613b6a565b5b600182019050919050565b7f596f7520617265206e6f7420617574686f72697a656420746f2061646420766160008201527f6c696461746f7273000000000000000000000000000000000000000000000000602082015250565b6000613c3d602883612e9b565b9150613c4882613be1565b604082019050919050565b60006020820190508181036000830152613c6c81613c30565b9050919050565b7f50726f6a65637420697320616c72656164792061637469766500000000000000600082015250565b6000613ca9601983612e9b565b9150613cb482613c73565b602082019050919050565b60006020820190508181036000830152613cd881613c9c565b9050919050565b7f4e487b7100000000000000000000000000000000000000000000000000000000600052603260045260246000fd5b7f56616c696461746f7220616c7265616479206164646564000000000000000000600082015250565b6000613d44601783612e9b565b9150613d4f82613d0e565b602082019050919050565b60006020820190508181036000830152613d7381613d37565b9050919050565b7f596f7520617265206e6f7420617574686f72697a656420746f2061646420636f60008201527f6e7472696275746f727300000000000000000000000000000000000000000000602082015250565b6000613dd6602a83612e9b565b9150613de182613d7a565b604082019050919050565b60006020820190508181036000830152613e0581613dc9565b9050919050565b7f436f6e7472696275746f7220616c726561647920616464656400000000000000600082015250565b6000613e42601983612e9b565b9150613e4d82613e0c565b602082019050919050565b60006020820190508181036000830152613e7181613e35565b9050919050565b7f50726f6a656374206973206e6f74206163746976650000000000000000000000600082015250565b6000613eae601583612e9b565b9150613eb982613e78565b602082019050919050565b60006020820190508181036000830152613edd81613ea1565b9050919050565b7f44697362757273656d656e74206461746520686173206e6f74206265656e207260008201527f6561636865640000000000000000000000000000000000000000000000000000602082015250565b6000613f40602683612e9b565b9150613f4b82613ee4565b604082019050919050565b60006020820190508181036000830152613f6f81613f33565b9050919050565b7f596f7520617265206e6f7420617574686f72697a656420746f20636f6c6c656360008201527f7420612072657761726400000000000000000000000000000000000000000000602082015250565b6000613fd2602a83612e9b565b9150613fdd82613f76565b604082019050919050565b6000602082019050818103600083015261400181613fc5565b9050919050565b7f52657761726420616c726561647920636f6c6c65637465640000000000000000600082015250565b600061403e601883612e9b565b915061404982614008565b602082019050919050565b6000602082019050818103600083015261406d81614031565b9050919050565b600061407f82612dd1565b915061408a83612dd1565b925082820261409881612dd1565b915082820484148315176140af576140ae613b6a565b5b5092915050565b7f4e487b7100000000000000000000000000000000000000000000000000000000600052601260045260246000fd5b60006140f082612dd1565b91506140fb83612dd1565b92508261410b5761410a6140b6565b5b828204905092915050565b600060408201905061412b6000830185612e81565b6141386020830184612f7f565b9392505050565b61414881612e34565b811461415357600080fd5b50565b6000815190506141658161413f565b92915050565b60006020828403121561418157614180612dc7565b5b600061418f84828501614156565b91505092915050565b7f4e6f207265776172640000000000000000000000000000000000000000000000600082015250565b60006141ce600983612e9b565b91506141d982614198565b602082019050919050565b600060208201905081810360008301526141fd816141c1565b9050919050565b7f56616c69646174696f6e20636f6d6d69746d656e7420646561646c696e65206860008201527f6173207061737365640000000000000000000000000000000000000000000000602082015250565b6000614260602983612e9b565b915061426b82614204565b604082019050919050565b6000602082019050818103600083015261428f81614253565b9050919050565b7f596f7520617265206e6f7420617574686f72697a656420746f20636f6d6d697460008201527f20612076616c69646174696f6e00000000000000000000000000000000000000602082015250565b60006142f2602d83612e9b565b91506142fd82614296565b604082019050919050565b60006020820190508181036000830152614321816142e5565b9050919050565b7f4e756d626572206f6620636f6d6d69746d656e7473206d757374206d6174636860008201527f206e756d626572206f6620636f6e7472696275746f7273000000000000000000602082015250565b6000614384603783612e9b565b915061438f82614328565b604082019050919050565b600060208201905081810360008301526143b381614377565b9050919050565b7f50726f6a6563742068617320616c726561647920737461727465640000000000600082015250565b60006143f0601b83612e9b565b91506143fb826143ba565b602082019050919050565b6000602082019050818103600083015261441f816143e3565b9050919050565b7f596f7520617265206e6f7420617574686f72697a656420746f2073746172742060008201527f7468652070726f6a656374000000000000000000000000000000000000000000602082015250565b6000614482602b83612e9b565b915061448d82614426565b604082019050919050565b600060208201905081810360008301526144b181614475565b9050919050565b7f4174206c65617374206f6e652076616c696461746f722069732072657175697260008201527f6564000000000000000000000000000000000000000000000000000000000000602082015250565b6000614514602283612e9b565b915061451f826144b8565b604082019050919050565b6000602082019050818103600083015261454381614507565b9050919050565b7f4174206c65617374206f6e6520636f6e7472696275746f72206973207265717560008201527f6972656400000000000000000000000000000000000000000000000000000000602082015250565b60006145a6602483612e9b565b91506145b18261454a565b604082019050919050565b600060208201905081810360008301526145d581614599565b9050919050565b60006145e782612dd1565b91506145f283612dd1565b925082820190508082111561460a57614609613b6a565b5b92915050565b60008151905061461f81612ddb565b92915050565b60006020828403121561463b5761463a612dc7565b5b600061464984828501614610565b91505092915050565b7f496e73756666696369656e742062616c616e6365000000000000000000000000600082015250565b6000614688601483612e9b565b915061469382614652565b602082019050919050565b600060208201905081810360008301526146b78161467b565b9050919050565b7f436f6d6d69746d656e7420646561646c696e65206d75737420626520696e207460008201527f6865206675747572650000000000000000000000000000000000000000000000602082015250565b600061471a602983612e9b565b9150614725826146be565b604082019050919050565b600060208201905081810360008301526147498161470d565b9050919050565b7f52657665616c20646561646c696e65206d75737420626520616674657220636f60008201527f6d6d69746d656e7420646561646c696e65000000000000000000000000000000602082015250565b60006147ac603183612e9b565b91506147b782614750565b604082019050919050565b600060208201905081810360008301526147db8161479f565b9050919050565b7f52657761726473206d75737420626520706f7369746976650000000000000000600082015250565b6000614818601883612e9b565b9150614823826147e2565b602082019050919050565b600060208201905081810360008301526148478161480b565b9050919050565b60006060820190506148636000830186612e81565b6148706020830185612e81565b61487d6040830184612f7f565b949350505050565b7f56616c69646174696f6e2072657665616c20646561646c696e6520686173207060008201527f6173736564000000000000000000000000000000000000000000000000000000602082015250565b60006148e1602583612e9b565b91506148ec82614885565b604082019050919050565b60006020820190508181036000830152614910816148d4565b9050919050565b7f596f7520617265206e6f7420617574686f72697a656420746f2072657665616c60008201527f20612076616c69646174696f6e00000000000000000000000000000000000000602082015250565b6000614973602d83612e9b565b915061497e82614917565b604082019050919050565b600060208201905081810360008301526149a281614966565b9050919050565b7f496e76616c696420696e70757400000000000000000000000000000000000000600082015250565b60006149df600d83612e9b565b91506149ea826149a9565b602082019050919050565b60006020820190508181036000830152614a0e816149d2565b9050919050565b7f4e6f20636f6d6d69746d656e7420666f756e6400000000000000000000000000600082015250565b6000614a4b601383612e9b565b9150614a5682614a15565b602082019050919050565b60006020820190508181036000830152614a7a81614a3e565b9050919050565b7f53636f726520616c72656164792072657665616c656400000000000000000000600082015250565b6000614ab7601683612e9b565b9150614ac282614a81565b602082019050919050565b60006020820190508181036000830152614ae681614aaa565b9050919050565b7f496e76616c69642073636f726500000000000000000000000000000000000000600082015250565b6000614b23600d83612e9b565b9150614b2e82614aed565b602082019050919050565b60006020820190508181036000830152614b5281614b16565b9050919050565b7f496e76616c696420636f6e7472696275746f7200000000000000000000000000600082015250565b6000614b8f601383612e9b565b9150614b9a82614b59565b602082019050919050565b60006020820190508181036000830152614bbe81614b82565b9050919050565b7f496e76616c69642072657665616c000000000000000000000000000000000000600082015250565b6000614bfb600e83612e9b565b9150614c0682614bc5565b602082019050919050565b60006020820190508181036000830152614c2a81614bee565b9050919050565b6000819050919050565b614c4c614c47826133bf565b614c31565b82525050565b6000819050919050565b614c6d614c6882612dd1565b614c52565b82525050565b6000614c7f8285614c3b565b602082019150614c8f8284614c5c565b602082019150819050939250505056fea2646970667358221220757fe8eb995252e70e2e4089587a93a7a8ccbad77e5351811731fa78a336239364736f6c634300081c0033",
  "linkReferences": {},
  "deployedLinkReferences": {}
}